{
  "contractName": "NftMarket",
  "abi": [
    {
      "inputs": [],
      "stateMutability": "nonpayable",
      "type": "constructor"
    },
    {
      "anonymous": false,
      "inputs": [
        {
          "indexed": true,
          "internalType": "address",
          "name": "owner",
          "type": "address"
        },
        {
          "indexed": true,
          "internalType": "address",
          "name": "approved",
          "type": "address"
        },
        {
          "indexed": true,
          "internalType": "uint256",
          "name": "tokenId",
          "type": "uint256"
        }
      ],
      "name": "Approval",
      "type": "event"
    },
    {
      "anonymous": false,
      "inputs": [
        {
          "indexed": true,
          "internalType": "address",
          "name": "owner",
          "type": "address"
        },
        {
          "indexed": true,
          "internalType": "address",
          "name": "operator",
          "type": "address"
        },
        {
          "indexed": false,
          "internalType": "bool",
          "name": "approved",
          "type": "bool"
        }
      ],
      "name": "ApprovalForAll",
      "type": "event"
    },
    {
      "anonymous": false,
      "inputs": [
        {
          "indexed": false,
          "internalType": "uint256",
          "name": "tokenId",
          "type": "uint256"
        },
        {
          "indexed": false,
          "internalType": "uint256",
          "name": "price",
          "type": "uint256"
        },
        {
          "indexed": false,
          "internalType": "address",
          "name": "creator",
          "type": "address"
        },
        {
          "indexed": false,
          "internalType": "bool",
          "name": "isListed",
          "type": "bool"
        }
      ],
      "name": "NftItemCreated",
      "type": "event"
    },
    {
      "anonymous": false,
      "inputs": [
        {
          "indexed": true,
          "internalType": "address",
          "name": "previousOwner",
          "type": "address"
        },
        {
          "indexed": true,
          "internalType": "address",
          "name": "newOwner",
          "type": "address"
        }
      ],
      "name": "OwnershipTransferred",
      "type": "event"
    },
    {
      "anonymous": false,
      "inputs": [
        {
          "indexed": true,
          "internalType": "address",
          "name": "from",
          "type": "address"
        },
        {
          "indexed": true,
          "internalType": "address",
          "name": "to",
          "type": "address"
        },
        {
          "indexed": true,
          "internalType": "uint256",
          "name": "tokenId",
          "type": "uint256"
        }
      ],
      "name": "Transfer",
      "type": "event"
    },
    {
      "inputs": [
        {
          "internalType": "address",
          "name": "to",
          "type": "address"
        },
        {
          "internalType": "uint256",
          "name": "tokenId",
          "type": "uint256"
        }
      ],
      "name": "approve",
      "outputs": [],
      "stateMutability": "nonpayable",
      "type": "function"
    },
    {
      "inputs": [
        {
          "internalType": "address",
          "name": "owner",
          "type": "address"
        }
      ],
      "name": "balanceOf",
      "outputs": [
        {
          "internalType": "uint256",
          "name": "",
          "type": "uint256"
        }
      ],
      "stateMutability": "view",
      "type": "function",
      "constant": true
    },
    {
      "inputs": [
        {
          "internalType": "uint256",
          "name": "tokenId",
          "type": "uint256"
        }
      ],
      "name": "getApproved",
      "outputs": [
        {
          "internalType": "address",
          "name": "",
          "type": "address"
        }
      ],
      "stateMutability": "view",
      "type": "function",
      "constant": true
    },
    {
      "inputs": [
        {
          "internalType": "address",
          "name": "owner",
          "type": "address"
        },
        {
          "internalType": "address",
          "name": "operator",
          "type": "address"
        }
      ],
      "name": "isApprovedForAll",
      "outputs": [
        {
          "internalType": "bool",
          "name": "",
          "type": "bool"
        }
      ],
      "stateMutability": "view",
      "type": "function",
      "constant": true
    },
    {
      "inputs": [],
      "name": "listingPrice",
      "outputs": [
        {
          "internalType": "uint256",
          "name": "",
          "type": "uint256"
        }
      ],
      "stateMutability": "view",
      "type": "function",
      "constant": true
    },
    {
      "inputs": [],
      "name": "name",
      "outputs": [
        {
          "internalType": "string",
          "name": "",
          "type": "string"
        }
      ],
      "stateMutability": "view",
      "type": "function",
      "constant": true
    },
    {
      "inputs": [],
      "name": "owner",
      "outputs": [
        {
          "internalType": "address",
          "name": "",
          "type": "address"
        }
      ],
      "stateMutability": "view",
      "type": "function",
      "constant": true
    },
    {
      "inputs": [
        {
          "internalType": "uint256",
          "name": "tokenId",
          "type": "uint256"
        }
      ],
      "name": "ownerOf",
      "outputs": [
        {
          "internalType": "address",
          "name": "",
          "type": "address"
        }
      ],
      "stateMutability": "view",
      "type": "function",
      "constant": true
    },
    {
      "inputs": [],
      "name": "renounceOwnership",
      "outputs": [],
      "stateMutability": "nonpayable",
      "type": "function"
    },
    {
      "inputs": [
        {
          "internalType": "address",
          "name": "from",
          "type": "address"
        },
        {
          "internalType": "address",
          "name": "to",
          "type": "address"
        },
        {
          "internalType": "uint256",
          "name": "tokenId",
          "type": "uint256"
        }
      ],
      "name": "safeTransferFrom",
      "outputs": [],
      "stateMutability": "nonpayable",
      "type": "function"
    },
    {
      "inputs": [
        {
          "internalType": "address",
          "name": "from",
          "type": "address"
        },
        {
          "internalType": "address",
          "name": "to",
          "type": "address"
        },
        {
          "internalType": "uint256",
          "name": "tokenId",
          "type": "uint256"
        },
        {
          "internalType": "bytes",
          "name": "data",
          "type": "bytes"
        }
      ],
      "name": "safeTransferFrom",
      "outputs": [],
      "stateMutability": "nonpayable",
      "type": "function"
    },
    {
      "inputs": [
        {
          "internalType": "address",
          "name": "operator",
          "type": "address"
        },
        {
          "internalType": "bool",
          "name": "approved",
          "type": "bool"
        }
      ],
      "name": "setApprovalForAll",
      "outputs": [],
      "stateMutability": "nonpayable",
      "type": "function"
    },
    {
      "inputs": [
        {
          "internalType": "bytes4",
          "name": "interfaceId",
          "type": "bytes4"
        }
      ],
      "name": "supportsInterface",
      "outputs": [
        {
          "internalType": "bool",
          "name": "",
          "type": "bool"
        }
      ],
      "stateMutability": "view",
      "type": "function",
      "constant": true
    },
    {
      "inputs": [],
      "name": "symbol",
      "outputs": [
        {
          "internalType": "string",
          "name": "",
          "type": "string"
        }
      ],
      "stateMutability": "view",
      "type": "function",
      "constant": true
    },
    {
      "inputs": [
        {
          "internalType": "uint256",
          "name": "tokenId",
          "type": "uint256"
        }
      ],
      "name": "tokenURI",
      "outputs": [
        {
          "internalType": "string",
          "name": "",
          "type": "string"
        }
      ],
      "stateMutability": "view",
      "type": "function",
      "constant": true
    },
    {
      "inputs": [
        {
          "internalType": "address",
          "name": "from",
          "type": "address"
        },
        {
          "internalType": "address",
          "name": "to",
          "type": "address"
        },
        {
          "internalType": "uint256",
          "name": "tokenId",
          "type": "uint256"
        }
      ],
      "name": "transferFrom",
      "outputs": [],
      "stateMutability": "nonpayable",
      "type": "function"
    },
    {
      "inputs": [
        {
          "internalType": "address",
          "name": "newOwner",
          "type": "address"
        }
      ],
      "name": "transferOwnership",
      "outputs": [],
      "stateMutability": "nonpayable",
      "type": "function"
    },
    {
      "inputs": [
        {
          "internalType": "uint256",
          "name": "newPrice",
          "type": "uint256"
        }
      ],
      "name": "setListingPrice",
      "outputs": [],
      "stateMutability": "nonpayable",
      "type": "function"
    },
    {
      "inputs": [
        {
          "internalType": "string",
          "name": "tokenURI",
          "type": "string"
        },
        {
          "internalType": "uint256",
          "name": "price",
          "type": "uint256"
        }
      ],
      "name": "mintToken",
      "outputs": [
        {
          "internalType": "uint256",
          "name": "",
          "type": "uint256"
        }
      ],
      "stateMutability": "payable",
      "type": "function",
      "payable": true
    },
    {
      "inputs": [],
      "name": "getOwnerNfts",
      "outputs": [
        {
          "components": [
            {
              "internalType": "uint256",
              "name": "tokenId",
              "type": "uint256"
            },
            {
              "internalType": "uint256",
              "name": "price",
              "type": "uint256"
            },
            {
              "internalType": "address",
              "name": "creator",
              "type": "address"
            },
            {
              "internalType": "bool",
              "name": "isListed",
              "type": "bool"
            }
          ],
          "internalType": "struct NftMarket.NftItem[]",
          "name": "",
          "type": "tuple[]"
        }
      ],
      "stateMutability": "view",
      "type": "function",
      "constant": true
    },
    {
      "inputs": [
        {
          "internalType": "uint256",
          "name": "tokenId",
          "type": "uint256"
        }
      ],
      "name": "buyNft",
      "outputs": [],
      "stateMutability": "payable",
      "type": "function",
      "payable": true
    },
    {
      "inputs": [
        {
          "internalType": "uint256",
          "name": "index",
          "type": "uint256"
        },
        {
          "internalType": "address",
          "name": "owner",
          "type": "address"
        }
      ],
      "name": "tokenOfOwnerByIndex",
      "outputs": [
        {
          "internalType": "uint256",
          "name": "",
          "type": "uint256"
        }
      ],
      "stateMutability": "view",
      "type": "function",
      "constant": true
    },
    {
      "inputs": [
        {
          "internalType": "uint256",
          "name": "tokenId",
          "type": "uint256"
        }
      ],
      "name": "getNftItem",
      "outputs": [
        {
          "components": [
            {
              "internalType": "uint256",
              "name": "tokenId",
              "type": "uint256"
            },
            {
              "internalType": "uint256",
              "name": "price",
              "type": "uint256"
            },
            {
              "internalType": "address",
              "name": "creator",
              "type": "address"
            },
            {
              "internalType": "bool",
              "name": "isListed",
              "type": "bool"
            }
          ],
          "internalType": "struct NftMarket.NftItem",
          "name": "",
          "type": "tuple"
        }
      ],
      "stateMutability": "view",
      "type": "function",
      "constant": true
    },
    {
      "inputs": [],
      "name": "getAllNftOnSale",
      "outputs": [
        {
          "components": [
            {
              "internalType": "uint256",
              "name": "tokenId",
              "type": "uint256"
            },
            {
              "internalType": "uint256",
              "name": "price",
              "type": "uint256"
            },
            {
              "internalType": "address",
              "name": "creator",
              "type": "address"
            },
            {
              "internalType": "bool",
              "name": "isListed",
              "type": "bool"
            }
          ],
          "internalType": "struct NftMarket.NftItem[]",
          "name": "",
          "type": "tuple[]"
        }
      ],
      "stateMutability": "view",
      "type": "function",
      "constant": true
    },
    {
      "inputs": [],
      "name": "listedItemsCount",
      "outputs": [
        {
          "internalType": "uint256",
          "name": "",
          "type": "uint256"
        }
      ],
      "stateMutability": "view",
      "type": "function",
      "constant": true
    },
    {
      "inputs": [
        {
          "internalType": "string",
          "name": "tokenURI",
          "type": "string"
        }
      ],
      "name": "tokenURIExists",
      "outputs": [
        {
          "internalType": "bool",
          "name": "",
          "type": "bool"
        }
      ],
      "stateMutability": "view",
      "type": "function",
      "constant": true
    },
    {
      "inputs": [
        {
          "internalType": "uint256",
          "name": "tokenId",
          "type": "uint256"
        },
        {
          "internalType": "uint256",
          "name": "newPrice",
          "type": "uint256"
        }
      ],
      "name": "placeNftOnSale",
      "outputs": [],
      "stateMutability": "payable",
      "type": "function",
      "payable": true
    },
    {
      "inputs": [],
      "name": "totalSupply",
      "outputs": [
        {
          "internalType": "uint256",
          "name": "",
          "type": "uint256"
        }
      ],
      "stateMutability": "view",
      "type": "function",
      "constant": true
    },
    {
      "inputs": [
        {
          "internalType": "uint256",
          "name": "index",
          "type": "uint256"
        }
      ],
      "name": "tokenByIndex",
      "outputs": [
        {
          "internalType": "uint256",
          "name": "",
          "type": "uint256"
        }
      ],
      "stateMutability": "view",
      "type": "function",
      "constant": true
    }
  ],
  "bytecode": "0x60806040526658d15e17628000600b553480156200001c57600080fd5b506040518060400160405280600c81526020017f4372656174757265734e465400000000000000000000000000000000000000008152506040518060400160405280600481526020017f434e46540000000000000000000000000000000000000000000000000000000081525081600090816200009a91906200041d565b508060019081620000ac91906200041d565b505050620000cf620000c3620000d560201b60201c565b620000dd60201b60201c565b62000504565b600033905090565b6000600760009054906101000a900473ffffffffffffffffffffffffffffffffffffffff16905081600760006101000a81548173ffffffffffffffffffffffffffffffffffffffff021916908373ffffffffffffffffffffffffffffffffffffffff1602179055508173ffffffffffffffffffffffffffffffffffffffff168173ffffffffffffffffffffffffffffffffffffffff167f8be0079c531659141344cd1fd0a4f28419497f9722a3daafe3b4186f6b6457e060405160405180910390a35050565b600081519050919050565b7f4e487b7100000000000000000000000000000000000000000000000000000000600052604160045260246000fd5b7f4e487b7100000000000000000000000000000000000000000000000000000000600052602260045260246000fd5b600060028204905060018216806200022557607f821691505b6020821081036200023b576200023a620001dd565b5b50919050565b60008190508160005260206000209050919050565b60006020601f8301049050919050565b600082821b905092915050565b600060088302620002a57fffffffffffffffffffffffffffffffffffffffffffffffffffffffffffffffff8262000266565b620002b1868362000266565b95508019841693508086168417925050509392505050565b6000819050919050565b6000819050919050565b6000620002fe620002f8620002f284620002c9565b620002d3565b620002c9565b9050919050565b6000819050919050565b6200031a83620002dd565b62000332620003298262000305565b84845462000273565b825550505050565b600090565b620003496200033a565b620003568184846200030f565b505050565b5b818110156200037e57620003726000826200033f565b6001810190506200035c565b5050565b601f821115620003cd57620003978162000241565b620003a28462000256565b81016020851015620003b2578190505b620003ca620003c18562000256565b8301826200035b565b50505b505050565b600082821c905092915050565b6000620003f260001984600802620003d2565b1980831691505092915050565b60006200040d8383620003df565b9150826002028217905092915050565b6200042882620001a3565b67ffffffffffffffff811115620004445762000443620001ae565b5b6200045082546200020c565b6200045d82828562000382565b600060209050601f83116001811462000495576000841562000480578287015190505b6200048c8582620003ff565b865550620004fc565b601f198416620004a58662000241565b60005b82811015620004cf57848901518255600182019150602085019450602081019050620004a8565b86831015620004ef5784890151620004eb601f891682620003df565b8355505b6001600288020188555050505b505050505050565b6149dc80620005146000396000f3fe6080604052600436106101c25760003560e01c8063715018a6116100f7578063b88d4fde11610095578063ccb4918d11610064578063ccb4918d14610663578063e985e9c51461068e578063eb3d009c146106cb578063f2fde38b146106f6576101c2565b8063b88d4fde146105a2578063c046372c146105cb578063c78f19f9146105fb578063c87b56dd14610626576101c2565b80638da5cb5b116100d15780638da5cb5b146104e657806395d89b4114610511578063a22cb4651461053c578063a5bb827514610565576101c2565b8063715018a61461047b5780637c726b69146104925780637d3b161f146104bb576101c2565b8063243adbdd116101645780634f6ccce71161013e5780634f6ccce7146103875780636352211e146103c45780636f1a0af51461040157806370a082311461043e576101c2565b8063243adbdd1461030557806342842e0e1461032157806343d32ae71461034a576101c2565b8063095ea7b3116101a0578063095ea7b31461026c57806318160ddd1461029557806321f422e5146102c057806323b872dd146102dc576101c2565b806301ffc9a7146101c757806306fdde0314610204578063081812fc1461022f575b600080fd5b3480156101d357600080fd5b506101ee60048036038101906101e99190612e10565b61071f565b6040516101fb9190612e58565b60405180910390f35b34801561021057600080fd5b50610219610801565b6040516102269190612f03565b60405180910390f35b34801561023b57600080fd5b5061025660048036038101906102519190612f5b565b610893565b6040516102639190612fc9565b60405180910390f35b34801561027857600080fd5b50610293600480360381019061028e9190613010565b6108d9565b005b3480156102a157600080fd5b506102aa6109f0565b6040516102b7919061305f565b60405180910390f35b6102da60048036038101906102d5919061307a565b6109fd565b005b3480156102e857600080fd5b5061030360048036038101906102fe91906130ba565b610bc9565b005b61031f600480360381019061031a9190612f5b565b610c29565b005b34801561032d57600080fd5b50610348600480360381019061034391906130ba565b610d91565b005b34801561035657600080fd5b50610371600480360381019061036c9190613242565b610db1565b60405161037e9190612e58565b60405180910390f35b34801561039357600080fd5b506103ae60048036038101906103a99190612f5b565b610ded565b6040516103bb919061305f565b60405180910390f35b3480156103d057600080fd5b506103eb60048036038101906103e69190612f5b565b610e5e565b6040516103f89190612fc9565b60405180910390f35b34801561040d57600080fd5b5061042860048036038101906104239190612f5b565b610f0f565b604051610435919061330d565b60405180910390f35b34801561044a57600080fd5b5061046560048036038101906104609190613328565b610fc1565b604051610472919061305f565b60405180910390f35b34801561048757600080fd5b50610490611078565b005b34801561049e57600080fd5b506104b960048036038101906104b49190612f5b565b61108c565b005b3480156104c757600080fd5b506104d06110e1565b6040516104dd9190613459565b60405180910390f35b3480156104f257600080fd5b506104fb611243565b6040516105089190612fc9565b60405180910390f35b34801561051d57600080fd5b5061052661126d565b6040516105339190612f03565b60405180910390f35b34801561054857600080fd5b50610563600480360381019061055e91906134a7565b6112ff565b005b34801561057157600080fd5b5061058c600480360381019061058791906134e7565b611315565b604051610599919061305f565b60405180910390f35b3480156105ae57600080fd5b506105c960048036038101906105c491906135c8565b6113ba565b005b6105e560048036038101906105e0919061364b565b61141c565b6040516105f2919061305f565b60405180910390f35b34801561060757600080fd5b5061061061152d565b60405161061d919061305f565b60405180910390f35b34801561063257600080fd5b5061064d60048036038101906106489190612f5b565b611533565b60405161065a9190612f03565b60405180910390f35b34801561066f57600080fd5b50610678611645565b604051610685919061305f565b60405180910390f35b34801561069a57600080fd5b506106b560048036038101906106b091906136a7565b611656565b6040516106c29190612e58565b60405180910390f35b3480156106d757600080fd5b506106e06116ea565b6040516106ed9190613459565b60405180910390f35b34801561070257600080fd5b5061071d60048036038101906107189190613328565b611880565b005b60007f80ac58cd000000000000000000000000000000000000000000000000000000007bffffffffffffffffffffffffffffffffffffffffffffffffffffffff1916827bffffffffffffffffffffffffffffffffffffffffffffffffffffffff191614806107ea57507f5b5e139f000000000000000000000000000000000000000000000000000000007bffffffffffffffffffffffffffffffffffffffffffffffffffffffff1916827bffffffffffffffffffffffffffffffffffffffffffffffffffffffff1916145b806107fa57506107f982611903565b5b9050919050565b60606000805461081090613716565b80601f016020809104026020016040519081016040528092919081815260200182805461083c90613716565b80156108895780601f1061085e57610100808354040283529160200191610889565b820191906000526020600020905b81548152906001019060200180831161086c57829003601f168201915b5050505050905090565b600061089e8261196d565b6004600083815260200190815260200160002060009054906101000a900473ffffffffffffffffffffffffffffffffffffffff169050919050565b60006108e482610e5e565b90508073ffffffffffffffffffffffffffffffffffffffff168373ffffffffffffffffffffffffffffffffffffffff1603610954576040517f08c379a000000000000000000000000000000000000000000000000000000000815260040161094b906137b9565b60405180910390fd5b8073ffffffffffffffffffffffffffffffffffffffff166109736119b8565b73ffffffffffffffffffffffffffffffffffffffff1614806109a257506109a18161099c6119b8565b611656565b5b6109e1576040517f08c379a00000000000000000000000000000000000000000000000000000000081526004016109d89061384b565b60405180910390fd5b6109eb83836119c0565b505050565b6000600a80549050905090565b6000600f600084815260200190815260200160002060405180608001604052908160008201548152602001600182015481526020016002820160009054906101000a900473ffffffffffffffffffffffffffffffffffffffff1673ffffffffffffffffffffffffffffffffffffffff1673ffffffffffffffffffffffffffffffffffffffff1681526020016002820160149054906101000a900460ff1615151515815250509050806040015173ffffffffffffffffffffffffffffffffffffffff163373ffffffffffffffffffffffffffffffffffffffff1614610b16576040517f08c379a0000000000000000000000000000000000000000000000000000000008152600401610b0d906138b7565b60405180910390fd5b806060015115610b5b576040517f08c379a0000000000000000000000000000000000000000000000000000000008152600401610b5290613923565b60405180910390fd5b600b543414610b9f576040517f08c379a0000000000000000000000000000000000000000000000000000000008152600401610b96906139b5565b60405180910390fd5b600181606001901515908115158152505081816020018181525050610bc46008611a79565b505050565b610bda610bd46119b8565b82611a8f565b610c19576040517f08c379a0000000000000000000000000000000000000000000000000000000008152600401610c1090613a47565b60405180910390fd5b610c24838383611b24565b505050565b6000600f60008381526020019081526020016000206001015490506000610c4f83610e5e565b9050813414610c93576040517f08c379a0000000000000000000000000000000000000000000000000000000008152600401610c8a90613ab3565b60405180910390fd5b8073ffffffffffffffffffffffffffffffffffffffff163373ffffffffffffffffffffffffffffffffffffffff1603610d01576040517f08c379a0000000000000000000000000000000000000000000000000000000008152600401610cf890613b1f565b60405180910390fd5b6000600f600085815260200190815260200160002060020160146101000a81548160ff021916908315150217905550610d3a6008611d8a565b610d45813385611b24565b8073ffffffffffffffffffffffffffffffffffffffff166108fc349081150290604051600060405180830381858888f19350505050158015610d8b573d6000803e3d6000fd5b50505050565b610dac838383604051806020016040528060008152506113ba565b505050565b600060011515600e83604051610dc79190613b7b565b908152602001604051809103902060009054906101000a900460ff161515149050919050565b6000610df76109f0565b8210610e38576040517f08c379a0000000000000000000000000000000000000000000000000000000008152600401610e2f90613bde565b60405180910390fd5b600a8281548110610e4c57610e4b613bfe565b5b90600052602060002001549050919050565b6000806002600084815260200190815260200160002060009054906101000a900473ffffffffffffffffffffffffffffffffffffffff169050600073ffffffffffffffffffffffffffffffffffffffff168173ffffffffffffffffffffffffffffffffffffffff1603610f06576040517f08c379a0000000000000000000000000000000000000000000000000000000008152600401610efd90613c79565b60405180910390fd5b80915050919050565b610f17612d64565b600f600083815260200190815260200160002060405180608001604052908160008201548152602001600182015481526020016002820160009054906101000a900473ffffffffffffffffffffffffffffffffffffffff1673ffffffffffffffffffffffffffffffffffffffff1673ffffffffffffffffffffffffffffffffffffffff1681526020016002820160149054906101000a900460ff1615151515815250509050919050565b60008073ffffffffffffffffffffffffffffffffffffffff168273ffffffffffffffffffffffffffffffffffffffff1603611031576040517f08c379a000000000000000000000000000000000000000000000000000000000815260040161102890613d0b565b60405180910390fd5b600360008373ffffffffffffffffffffffffffffffffffffffff1673ffffffffffffffffffffffffffffffffffffffff168152602001908152602001600020549050919050565b611080611de6565b61108a6000611e64565b565b611094611de6565b600081116110d7576040517f08c379a00000000000000000000000000000000000000000000000000000000081526004016110ce90613d77565b60405180910390fd5b80600b8190555050565b606060006110ee33610fc1565b905060008167ffffffffffffffff81111561110c5761110b613117565b5b60405190808252806020026020018201604052801561114557816020015b611132612d64565b81526020019060019003908161112a5790505b50905060005b8281101561123a57600061115f8233611315565b90506000600f600083815260200190815260200160002090508060405180608001604052908160008201548152602001600182015481526020016002820160009054906101000a900473ffffffffffffffffffffffffffffffffffffffff1673ffffffffffffffffffffffffffffffffffffffff1673ffffffffffffffffffffffffffffffffffffffff1681526020016002820160149054906101000a900460ff16151515158152505084848151811061121c5761121b613bfe565b5b602002602001018190525050508061123390613dc6565b905061114b565b50809250505090565b6000600760009054906101000a900473ffffffffffffffffffffffffffffffffffffffff16905090565b60606001805461127c90613716565b80601f01602080910402602001604051908101604052809291908181526020018280546112a890613716565b80156112f55780601f106112ca576101008083540402835291602001916112f5565b820191906000526020600020905b8154815290600101906020018083116112d857829003601f168201915b5050505050905090565b61131161130a6119b8565b8383611f2a565b5050565b600061132082610fc1565b8310611361576040517f08c379a000000000000000000000000000000000000000000000000000000000815260040161135890613e5a565b60405180910390fd5b600c60008373ffffffffffffffffffffffffffffffffffffffff1673ffffffffffffffffffffffffffffffffffffffff168152602001908152602001600020600084815260200190815260200160002054905092915050565b6113cb6113c56119b8565b83611a8f565b61140a576040517f08c379a000000000000000000000000000000000000000000000000000000000815260040161140190613a47565b60405180910390fd5b61141684848484612096565b50505050565b600061142783610db1565b15611467576040517f08c379a000000000000000000000000000000000000000000000000000000000815260040161145e90613ec6565b60405180910390fd5b600b543410156114ac576040517f08c379a00000000000000000000000000000000000000000000000000000000081526004016114a390613f32565b60405180910390fd5b6114b66009611a79565b6114c06008611a79565b60006114cc60096120f2565b90506114d83382612100565b6114e2818561211e565b6001600e856040516114f49190613b7b565b908152602001604051809103902060006101000a81548160ff021916908315150217905550611523818461218b565b8091505092915050565b600b5481565b606061153e8261196d565b600060066000848152602001908152602001600020805461155e90613716565b80601f016020809104026020016040519081016040528092919081815260200182805461158a90613716565b80156115d75780601f106115ac576101008083540402835291602001916115d7565b820191906000526020600020905b8154815290600101906020018083116115ba57829003601f168201915b5050505050905060006115e86122db565b905060008151036115fd578192505050611640565b60008251111561163257808260405160200161161a929190613f52565b60405160208183030381529060405292505050611640565b61163b846122f2565b925050505b919050565b600061165160086120f2565b905090565b6000600560008473ffffffffffffffffffffffffffffffffffffffff1673ffffffffffffffffffffffffffffffffffffffff16815260200190815260200160002060008373ffffffffffffffffffffffffffffffffffffffff1673ffffffffffffffffffffffffffffffffffffffff16815260200190815260200160002060009054906101000a900460ff16905092915050565b606060006116f66109f0565b905060008061170560086120f2565b67ffffffffffffffff81111561171e5761171d613117565b5b60405190808252806020026020018201604052801561175757816020015b611744612d64565b81526020019060019003908161173c5790505b50905060005b8381101561187957600061177082610ded565b90506000600f60008381526020019081526020016000209050600115158160020160149054906101000a900460ff16151503611864578060405180608001604052908160008201548152602001600182015481526020016002820160009054906101000a900473ffffffffffffffffffffffffffffffffffffffff1673ffffffffffffffffffffffffffffffffffffffff1673ffffffffffffffffffffffffffffffffffffffff1681526020016002820160149054906101000a900460ff16151515158152505084868151811061184a57611849613bfe565b5b6020026020010181905250848061186090613dc6565b9550505b5050808061187190613dc6565b91505061175d565b5050505090565b611888611de6565b600073ffffffffffffffffffffffffffffffffffffffff168173ffffffffffffffffffffffffffffffffffffffff16036118f7576040517f08c379a00000000000000000000000000000000000000000000000000000000081526004016118ee90613fe8565b60405180910390fd5b61190081611e64565b50565b60007f01ffc9a7000000000000000000000000000000000000000000000000000000007bffffffffffffffffffffffffffffffffffffffffffffffffffffffff1916827bffffffffffffffffffffffffffffffffffffffffffffffffffffffff1916149050919050565b6119768161235a565b6119b5576040517f08c379a00000000000000000000000000000000000000000000000000000000081526004016119ac90613c79565b60405180910390fd5b50565b600033905090565b816004600083815260200190815260200160002060006101000a81548173ffffffffffffffffffffffffffffffffffffffff021916908373ffffffffffffffffffffffffffffffffffffffff160217905550808273ffffffffffffffffffffffffffffffffffffffff16611a3383610e5e565b73ffffffffffffffffffffffffffffffffffffffff167f8c5be1e5ebec7d5bd14f71427d1e84f3dd0314c0f7b2291e5b200ac8c7c3b92560405160405180910390a45050565b6001816000016000828254019250508190555050565b600080611a9b83610e5e565b90508073ffffffffffffffffffffffffffffffffffffffff168473ffffffffffffffffffffffffffffffffffffffff161480611add5750611adc8185611656565b5b80611b1b57508373ffffffffffffffffffffffffffffffffffffffff16611b0384610893565b73ffffffffffffffffffffffffffffffffffffffff16145b91505092915050565b8273ffffffffffffffffffffffffffffffffffffffff16611b4482610e5e565b73ffffffffffffffffffffffffffffffffffffffff1614611b9a576040517f08c379a0000000000000000000000000000000000000000000000000000000008152600401611b919061407a565b60405180910390fd5b600073ffffffffffffffffffffffffffffffffffffffff168273ffffffffffffffffffffffffffffffffffffffff1603611c09576040517f08c379a0000000000000000000000000000000000000000000000000000000008152600401611c009061410c565b60405180910390fd5b611c148383836123c6565b611c1f6000826119c0565b6001600360008573ffffffffffffffffffffffffffffffffffffffff1673ffffffffffffffffffffffffffffffffffffffff1681526020019081526020016000206000828254611c6f919061412c565b925050819055506001600360008473ffffffffffffffffffffffffffffffffffffffff1673ffffffffffffffffffffffffffffffffffffffff1681526020019081526020016000206000828254611cc69190614160565b92505081905550816002600083815260200190815260200160002060006101000a81548173ffffffffffffffffffffffffffffffffffffffff021916908373ffffffffffffffffffffffffffffffffffffffff160217905550808273ffffffffffffffffffffffffffffffffffffffff168473ffffffffffffffffffffffffffffffffffffffff167fddf252ad1be2c89b69c2b068fc378daa952ba7f163c4a11628f55a4df523b3ef60405160405180910390a4611d85838383612516565b505050565b60008160000154905060008111611dd6576040517f08c379a0000000000000000000000000000000000000000000000000000000008152600401611dcd906141e0565b60405180910390fd5b6001810382600001819055505050565b611dee6119b8565b73ffffffffffffffffffffffffffffffffffffffff16611e0c611243565b73ffffffffffffffffffffffffffffffffffffffff1614611e62576040517f08c379a0000000000000000000000000000000000000000000000000000000008152600401611e599061424c565b60405180910390fd5b565b6000600760009054906101000a900473ffffffffffffffffffffffffffffffffffffffff16905081600760006101000a81548173ffffffffffffffffffffffffffffffffffffffff021916908373ffffffffffffffffffffffffffffffffffffffff1602179055508173ffffffffffffffffffffffffffffffffffffffff168173ffffffffffffffffffffffffffffffffffffffff167f8be0079c531659141344cd1fd0a4f28419497f9722a3daafe3b4186f6b6457e060405160405180910390a35050565b8173ffffffffffffffffffffffffffffffffffffffff168373ffffffffffffffffffffffffffffffffffffffff1603611f98576040517f08c379a0000000000000000000000000000000000000000000000000000000008152600401611f8f906142b8565b60405180910390fd5b80600560008573ffffffffffffffffffffffffffffffffffffffff1673ffffffffffffffffffffffffffffffffffffffff16815260200190815260200160002060008473ffffffffffffffffffffffffffffffffffffffff1673ffffffffffffffffffffffffffffffffffffffff16815260200190815260200160002060006101000a81548160ff0219169083151502179055508173ffffffffffffffffffffffffffffffffffffffff168373ffffffffffffffffffffffffffffffffffffffff167f17307eab39ab6107e8899845ad3d59bd9653f200f220920489ca2b5937696c31836040516120899190612e58565b60405180910390a3505050565b6120a1848484611b24565b6120ad8484848461251b565b6120ec576040517f08c379a00000000000000000000000000000000000000000000000000000000081526004016120e39061434a565b60405180910390fd5b50505050565b600081600001549050919050565b61211a8282604051806020016040528060008152506126a2565b5050565b6121278261235a565b612166576040517f08c379a000000000000000000000000000000000000000000000000000000000815260040161215d906143dc565b60405180910390fd5b8060066000848152602001908152602001600020908161218691906145a8565b505050565b600081116121ce576040517f08c379a00000000000000000000000000000000000000000000000000000000081526004016121c5906146c6565b60405180910390fd5b60405180608001604052808381526020018281526020013373ffffffffffffffffffffffffffffffffffffffff16815260200160011515815250600f6000848152602001908152602001600020600082015181600001556020820151816001015560408201518160020160006101000a81548173ffffffffffffffffffffffffffffffffffffffff021916908373ffffffffffffffffffffffffffffffffffffffff16021790555060608201518160020160146101000a81548160ff0219169083151502179055509050507f470031062672bc0246e132c723a729c4676710ec663a29e86c88678032daddea82823360016040516122cf94939291906146e6565b60405180910390a15050565b606060405180602001604052806000815250905090565b60606122fd8261196d565b60006123076122db565b905060008151116123275760405180602001604052806000815250612352565b80612331846126fd565b604051602001612342929190613f52565b6040516020818303038152906040525b915050919050565b60008073ffffffffffffffffffffffffffffffffffffffff166002600084815260200190815260200160002060009054906101000a900473ffffffffffffffffffffffffffffffffffffffff1673ffffffffffffffffffffffffffffffffffffffff1614159050919050565b6123d183838361285d565b600073ffffffffffffffffffffffffffffffffffffffff168373ffffffffffffffffffffffffffffffffffffffff16036124135761240e81612862565b612452565b8173ffffffffffffffffffffffffffffffffffffffff168373ffffffffffffffffffffffffffffffffffffffff16146124515761245083826128ab565b5b5b600073ffffffffffffffffffffffffffffffffffffffff168273ffffffffffffffffffffffffffffffffffffffff16036124945761248f81612a18565b6124d3565b8273ffffffffffffffffffffffffffffffffffffffff168273ffffffffffffffffffffffffffffffffffffffff16146124d2576124d18183612ae9565b5b5b8273ffffffffffffffffffffffffffffffffffffffff168273ffffffffffffffffffffffffffffffffffffffff1614612511576125108183612ae9565b5b505050565b505050565b600061253c8473ffffffffffffffffffffffffffffffffffffffff16612b68565b15612695578373ffffffffffffffffffffffffffffffffffffffff1663150b7a026125656119b8565b8786866040518563ffffffff1660e01b81526004016125879493929190614780565b6020604051808303816000875af19250505080156125c357506040513d601f19601f820116820180604052508101906125c091906147e1565b60015b612645573d80600081146125f3576040519150601f19603f3d011682016040523d82523d6000602084013e6125f8565b606091505b50600081510361263d576040517f08c379a00000000000000000000000000000000000000000000000000000000081526004016126349061434a565b60405180910390fd5b805181602001fd5b63150b7a0260e01b7bffffffffffffffffffffffffffffffffffffffffffffffffffffffff1916817bffffffffffffffffffffffffffffffffffffffffffffffffffffffff19161491505061269a565b600190505b949350505050565b6126ac8383612b8b565b6126b9600084848461251b565b6126f8576040517f08c379a00000000000000000000000000000000000000000000000000000000081526004016126ef9061434a565b60405180910390fd5b505050565b606060008203612744576040518060400160405280600181526020017f30000000000000000000000000000000000000000000000000000000000000008152509050612858565b600082905060005b6000821461277657808061275f90613dc6565b915050600a8261276f919061483d565b915061274c565b60008167ffffffffffffffff81111561279257612791613117565b5b6040519080825280601f01601f1916602001820160405280156127c45781602001600182028036833780820191505090505b5090505b60008514612851576001826127dd919061412c565b9150600a856127ec919061486e565b60306127f89190614160565b60f81b81838151811061280e5761280d613bfe565b5b60200101907effffffffffffffffffffffffffffffffffffffffffffffffffffffffffffff1916908160001a905350600a8561284a919061483d565b94506127c8565b8093505050505b919050565b505050565b600a805490506010600083815260200190815260200160002081905550600a81908060018154018082558091505060019003906000526020600020016000909190919091505550565b600060016128b884610fc1565b6128c2919061412c565b90506000600d60008481526020019081526020016000205490508181146129a7576000600c60008673ffffffffffffffffffffffffffffffffffffffff1673ffffffffffffffffffffffffffffffffffffffff168152602001908152602001600020600084815260200190815260200160002054905080600c60008773ffffffffffffffffffffffffffffffffffffffff1673ffffffffffffffffffffffffffffffffffffffff16815260200190815260200160002060008481526020019081526020016000208190555081600d600083815260200190815260200160002081905550505b600d600084815260200190815260200160002060009055600c60008573ffffffffffffffffffffffffffffffffffffffff1673ffffffffffffffffffffffffffffffffffffffff16815260200190815260200160002060008381526020019081526020016000206000905550505050565b60006001600a80549050612a2c919061412c565b90506000601060008481526020019081526020016000205490506000600a8381548110612a5c57612a5b613bfe565b5b9060005260206000200154905080600a8381548110612a7e57612a7d613bfe565b5b90600052602060002001819055508160106000838152602001908152602001600020819055506010600085815260200190815260200160002060009055600a805480612acd57612acc61489f565b5b6001900381819060005260206000200160009055905550505050565b6000612af482610fc1565b905082600c60008473ffffffffffffffffffffffffffffffffffffffff1673ffffffffffffffffffffffffffffffffffffffff16815260200190815260200160002060008381526020019081526020016000208190555080600d600085815260200190815260200160002081905550505050565b6000808273ffffffffffffffffffffffffffffffffffffffff163b119050919050565b600073ffffffffffffffffffffffffffffffffffffffff168273ffffffffffffffffffffffffffffffffffffffff1603612bfa576040517f08c379a0000000000000000000000000000000000000000000000000000000008152600401612bf19061491a565b60405180910390fd5b612c038161235a565b15612c43576040517f08c379a0000000000000000000000000000000000000000000000000000000008152600401612c3a90614986565b60405180910390fd5b612c4f600083836123c6565b6001600360008473ffffffffffffffffffffffffffffffffffffffff1673ffffffffffffffffffffffffffffffffffffffff1681526020019081526020016000206000828254612c9f9190614160565b92505081905550816002600083815260200190815260200160002060006101000a81548173ffffffffffffffffffffffffffffffffffffffff021916908373ffffffffffffffffffffffffffffffffffffffff160217905550808273ffffffffffffffffffffffffffffffffffffffff16600073ffffffffffffffffffffffffffffffffffffffff167fddf252ad1be2c89b69c2b068fc378daa952ba7f163c4a11628f55a4df523b3ef60405160405180910390a4612d6060008383612516565b5050565b60405180608001604052806000815260200160008152602001600073ffffffffffffffffffffffffffffffffffffffff1681526020016000151581525090565b6000604051905090565b600080fd5b600080fd5b60007fffffffff0000000000000000000000000000000000000000000000000000000082169050919050565b612ded81612db8565b8114612df857600080fd5b50565b600081359050612e0a81612de4565b92915050565b600060208284031215612e2657612e25612dae565b5b6000612e3484828501612dfb565b91505092915050565b60008115159050919050565b612e5281612e3d565b82525050565b6000602082019050612e6d6000830184612e49565b92915050565b600081519050919050565b600082825260208201905092915050565b60005b83811015612ead578082015181840152602081019050612e92565b60008484015250505050565b6000601f19601f8301169050919050565b6000612ed582612e73565b612edf8185612e7e565b9350612eef818560208601612e8f565b612ef881612eb9565b840191505092915050565b60006020820190508181036000830152612f1d8184612eca565b905092915050565b6000819050919050565b612f3881612f25565b8114612f4357600080fd5b50565b600081359050612f5581612f2f565b92915050565b600060208284031215612f7157612f70612dae565b5b6000612f7f84828501612f46565b91505092915050565b600073ffffffffffffffffffffffffffffffffffffffff82169050919050565b6000612fb382612f88565b9050919050565b612fc381612fa8565b82525050565b6000602082019050612fde6000830184612fba565b92915050565b612fed81612fa8565b8114612ff857600080fd5b50565b60008135905061300a81612fe4565b92915050565b6000806040838503121561302757613026612dae565b5b600061303585828601612ffb565b925050602061304685828601612f46565b9150509250929050565b61305981612f25565b82525050565b60006020820190506130746000830184613050565b92915050565b6000806040838503121561309157613090612dae565b5b600061309f85828601612f46565b92505060206130b085828601612f46565b9150509250929050565b6000806000606084860312156130d3576130d2612dae565b5b60006130e186828701612ffb565b93505060206130f286828701612ffb565b925050604061310386828701612f46565b9150509250925092565b600080fd5b600080fd5b7f4e487b7100000000000000000000000000000000000000000000000000000000600052604160045260246000fd5b61314f82612eb9565b810181811067ffffffffffffffff8211171561316e5761316d613117565b5b80604052505050565b6000613181612da4565b905061318d8282613146565b919050565b600067ffffffffffffffff8211156131ad576131ac613117565b5b6131b682612eb9565b9050602081019050919050565b82818337600083830152505050565b60006131e56131e084613192565b613177565b90508281526020810184848401111561320157613200613112565b5b61320c8482856131c3565b509392505050565b600082601f8301126132295761322861310d565b5b81356132398482602086016131d2565b91505092915050565b60006020828403121561325857613257612dae565b5b600082013567ffffffffffffffff81111561327657613275612db3565b5b61328284828501613214565b91505092915050565b61329481612f25565b82525050565b6132a381612fa8565b82525050565b6132b281612e3d565b82525050565b6080820160008201516132ce600085018261328b565b5060208201516132e1602085018261328b565b5060408201516132f4604085018261329a565b50606082015161330760608501826132a9565b50505050565b600060808201905061332260008301846132b8565b92915050565b60006020828403121561333e5761333d612dae565b5b600061334c84828501612ffb565b91505092915050565b600081519050919050565b600082825260208201905092915050565b6000819050602082019050919050565b608082016000820151613397600085018261328b565b5060208201516133aa602085018261328b565b5060408201516133bd604085018261329a565b5060608201516133d060608501826132a9565b50505050565b60006133e28383613381565b60808301905092915050565b6000602082019050919050565b600061340682613355565b6134108185613360565b935061341b83613371565b8060005b8381101561344c57815161343388826133d6565b975061343e836133ee565b92505060018101905061341f565b5085935050505092915050565b6000602082019050818103600083015261347381846133fb565b905092915050565b61348481612e3d565b811461348f57600080fd5b50565b6000813590506134a18161347b565b92915050565b600080604083850312156134be576134bd612dae565b5b60006134cc85828601612ffb565b92505060206134dd85828601613492565b9150509250929050565b600080604083850312156134fe576134fd612dae565b5b600061350c85828601612f46565b925050602061351d85828601612ffb565b9150509250929050565b600067ffffffffffffffff82111561354257613541613117565b5b61354b82612eb9565b9050602081019050919050565b600061356b61356684613527565b613177565b90508281526020810184848401111561358757613586613112565b5b6135928482856131c3565b509392505050565b600082601f8301126135af576135ae61310d565b5b81356135bf848260208601613558565b91505092915050565b600080600080608085870312156135e2576135e1612dae565b5b60006135f087828801612ffb565b945050602061360187828801612ffb565b935050604061361287828801612f46565b925050606085013567ffffffffffffffff81111561363357613632612db3565b5b61363f8782880161359a565b91505092959194509250565b6000806040838503121561366257613661612dae565b5b600083013567ffffffffffffffff8111156136805761367f612db3565b5b61368c85828601613214565b925050602061369d85828601612f46565b9150509250929050565b600080604083850312156136be576136bd612dae565b5b60006136cc85828601612ffb565b92505060206136dd85828601612ffb565b9150509250929050565b7f4e487b7100000000000000000000000000000000000000000000000000000000600052602260045260246000fd5b6000600282049050600182168061372e57607f821691505b602082108103613741576137406136e7565b5b50919050565b7f4552433732313a20617070726f76616c20746f2063757272656e74206f776e6560008201527f7200000000000000000000000000000000000000000000000000000000000000602082015250565b60006137a3602183612e7e565b91506137ae82613747565b604082019050919050565b600060208201905081810360008301526137d281613796565b9050919050565b7f4552433732313a20617070726f76652063616c6c6572206973206e6f7420746f60008201527f6b656e206f776e6572206e6f7220617070726f76656420666f7220616c6c0000602082015250565b6000613835603e83612e7e565b9150613840826137d9565b604082019050919050565b6000602082019050818103600083015261386481613828565b9050919050565b7f596f7520617265206e6f74206f776e6572206f662074686973204e4654000000600082015250565b60006138a1601d83612e7e565b91506138ac8261386b565b602082019050919050565b600060208201905081810360008301526138d081613894565b9050919050565b7f4974656d20697320616c7265616479206c697374656400000000000000000000600082015250565b600061390d601683612e7e565b9150613918826138d7565b602082019050919050565b6000602082019050818103600083015261393c81613900565b9050919050565b7f596f752073686f756c642070617920302e30323520657468657220746f206c6960008201527f7374206974656d00000000000000000000000000000000000000000000000000602082015250565b600061399f602783612e7e565b91506139aa82613943565b604082019050919050565b600060208201905081810360008301526139ce81613992565b9050919050565b7f4552433732313a2063616c6c6572206973206e6f7420746f6b656e206f776e6560008201527f72206e6f7220617070726f766564000000000000000000000000000000000000602082015250565b6000613a31602e83612e7e565b9150613a3c826139d5565b604082019050919050565b60006020820190508181036000830152613a6081613a24565b9050919050565b7f506c65617365207375626d6974207468652061736b696e672070726963650000600082015250565b6000613a9d601e83612e7e565b9150613aa882613a67565b602082019050919050565b60006020820190508181036000830152613acc81613a90565b9050919050565b7f596f752063616e206e6f742062757920796f7572206f776e206e667400000000600082015250565b6000613b09601c83612e7e565b9150613b1482613ad3565b602082019050919050565b60006020820190508181036000830152613b3881613afc565b9050919050565b600081905092915050565b6000613b5582612e73565b613b5f8185613b3f565b9350613b6f818560208601612e8f565b80840191505092915050565b6000613b878284613b4a565b915081905092915050565b7f496e646578206f7574206f662074686520626f756e6473000000000000000000600082015250565b6000613bc8601783612e7e565b9150613bd382613b92565b602082019050919050565b60006020820190508181036000830152613bf781613bbb565b9050919050565b7f4e487b7100000000000000000000000000000000000000000000000000000000600052603260045260246000fd5b7f4552433732313a20696e76616c696420746f6b656e2049440000000000000000600082015250565b6000613c63601883612e7e565b9150613c6e82613c2d565b602082019050919050565b60006020820190508181036000830152613c9281613c56565b9050919050565b7f4552433732313a2061646472657373207a65726f206973206e6f74206120766160008201527f6c6964206f776e65720000000000000000000000000000000000000000000000602082015250565b6000613cf5602983612e7e565b9150613d0082613c99565b604082019050919050565b60006020820190508181036000830152613d2481613ce8565b9050919050565b7f50726963652073686f756c642062652067726561746572207468656e20300000600082015250565b6000613d61601e83612e7e565b9150613d6c82613d2b565b602082019050919050565b60006020820190508181036000830152613d9081613d54565b9050919050565b7f4e487b7100000000000000000000000000000000000000000000000000000000600052601160045260246000fd5b6000613dd182612f25565b91507fffffffffffffffffffffffffffffffffffffffffffffffffffffffffffffffff8203613e0357613e02613d97565b5b600182019050919050565b7f4f7574206f6620626f756e647300000000000000000000000000000000000000600082015250565b6000613e44600d83612e7e565b9150613e4f82613e0e565b602082019050919050565b60006020820190508181036000830152613e7381613e37565b9050919050565b7f546f6b656e2055524920616c7265616479206578697374730000000000000000600082015250565b6000613eb0601883612e7e565b9150613ebb82613e7a565b602082019050919050565b60006020820190508181036000830152613edf81613ea3565b9050919050565b7f50616964206e6f7420656e6f7567680000000000000000000000000000000000600082015250565b6000613f1c600f83612e7e565b9150613f2782613ee6565b602082019050919050565b60006020820190508181036000830152613f4b81613f0f565b9050919050565b6000613f5e8285613b4a565b9150613f6a8284613b4a565b91508190509392505050565b7f4f776e61626c653a206e6577206f776e657220697320746865207a65726f206160008201527f6464726573730000000000000000000000000000000000000000000000000000602082015250565b6000613fd2602683612e7e565b9150613fdd82613f76565b604082019050919050565b6000602082019050818103600083015261400181613fc5565b9050919050565b7f4552433732313a207472616e736665722066726f6d20696e636f72726563742060008201527f6f776e6572000000000000000000000000000000000000000000000000000000602082015250565b6000614064602583612e7e565b915061406f82614008565b604082019050919050565b6000602082019050818103600083015261409381614057565b9050919050565b7f4552433732313a207472616e7366657220746f20746865207a65726f2061646460008201527f7265737300000000000000000000000000000000000000000000000000000000602082015250565b60006140f6602483612e7e565b91506141018261409a565b604082019050919050565b60006020820190508181036000830152614125816140e9565b9050919050565b600061413782612f25565b915061414283612f25565b925082820390508181111561415a57614159613d97565b5b92915050565b600061416b82612f25565b915061417683612f25565b925082820190508082111561418e5761418d613d97565b5b92915050565b7f436f756e7465723a2064656372656d656e74206f766572666c6f770000000000600082015250565b60006141ca601b83612e7e565b91506141d582614194565b602082019050919050565b600060208201905081810360008301526141f9816141bd565b9050919050565b7f4f776e61626c653a2063616c6c6572206973206e6f7420746865206f776e6572600082015250565b6000614236602083612e7e565b915061424182614200565b602082019050919050565b6000602082019050818103600083015261426581614229565b9050919050565b7f4552433732313a20617070726f766520746f2063616c6c657200000000000000600082015250565b60006142a2601983612e7e565b91506142ad8261426c565b602082019050919050565b600060208201905081810360008301526142d181614295565b9050919050565b7f4552433732313a207472616e7366657220746f206e6f6e20455243373231526560008201527f63656976657220696d706c656d656e7465720000000000000000000000000000602082015250565b6000614334603283612e7e565b915061433f826142d8565b604082019050919050565b6000602082019050818103600083015261436381614327565b9050919050565b7f45524337323155524953746f726167653a2055524920736574206f66206e6f6e60008201527f6578697374656e7420746f6b656e000000000000000000000000000000000000602082015250565b60006143c6602e83612e7e565b91506143d18261436a565b604082019050919050565b600060208201905081810360008301526143f5816143b9565b9050919050565b60008190508160005260206000209050919050565b60006020601f8301049050919050565b600082821b905092915050565b60006008830261445e7fffffffffffffffffffffffffffffffffffffffffffffffffffffffffffffffff82614421565b6144688683614421565b95508019841693508086168417925050509392505050565b6000819050919050565b60006144a56144a061449b84612f25565b614480565b612f25565b9050919050565b6000819050919050565b6144bf8361448a565b6144d36144cb826144ac565b84845461442e565b825550505050565b600090565b6144e86144db565b6144f38184846144b6565b505050565b5b818110156145175761450c6000826144e0565b6001810190506144f9565b5050565b601f82111561455c5761452d816143fc565b61453684614411565b81016020851015614545578190505b61455961455185614411565b8301826144f8565b50505b505050565b600082821c905092915050565b600061457f60001984600802614561565b1980831691505092915050565b6000614598838361456e565b9150826002028217905092915050565b6145b182612e73565b67ffffffffffffffff8111156145ca576145c9613117565b5b6145d48254613716565b6145df82828561451b565b600060209050601f8311600181146146125760008415614600578287015190505b61460a858261458c565b865550614672565b601f198416614620866143fc565b60005b8281101561464857848901518255600182019150602085019450602081019050614623565b868310156146655784890151614661601f89168261456e565b8355505b6001600288020188555050505b505050505050565b7f5072696365206d7573742062652067726561746572207468656e203000000000600082015250565b60006146b0601c83612e7e565b91506146bb8261467a565b602082019050919050565b600060208201905081810360008301526146df816146a3565b9050919050565b60006080820190506146fb6000830187613050565b6147086020830186613050565b6147156040830185612fba565b6147226060830184612e49565b95945050505050565b600081519050919050565b600082825260208201905092915050565b60006147528261472b565b61475c8185614736565b935061476c818560208601612e8f565b61477581612eb9565b840191505092915050565b60006080820190506147956000830187612fba565b6147a26020830186612fba565b6147af6040830185613050565b81810360608301526147c18184614747565b905095945050505050565b6000815190506147db81612de4565b92915050565b6000602082840312156147f7576147f6612dae565b5b6000614805848285016147cc565b91505092915050565b7f4e487b7100000000000000000000000000000000000000000000000000000000600052601260045260246000fd5b600061484882612f25565b915061485383612f25565b9250826148635761486261480e565b5b828204905092915050565b600061487982612f25565b915061488483612f25565b9250826148945761489361480e565b5b828206905092915050565b7f4e487b7100000000000000000000000000000000000000000000000000000000600052603160045260246000fd5b7f4552433732313a206d696e7420746f20746865207a65726f2061646472657373600082015250565b6000614904602083612e7e565b915061490f826148ce565b602082019050919050565b60006020820190508181036000830152614933816148f7565b9050919050565b7f4552433732313a20746f6b656e20616c7265616479206d696e74656400000000600082015250565b6000614970601c83612e7e565b915061497b8261493a565b602082019050919050565b6000602082019050818103600083015261499f81614963565b905091905056fea2646970667358221220f4dbefa185a24fe514a111d3ebafd3acf6fbc3e49300b046c4bb2f08edaf84e964736f6c63430008110033",
  "immutableReferences": {},
  "source": "// SPDX-License-Identifier: MIT\r\n\r\n\r\npragma solidity >= 0.6.0 < 0.9.0;\r\nimport \"@openzeppelin/contracts/token/ERC721/extensions/ERC721URIStorage.sol\";\r\nimport \"@openzeppelin/contracts/utils/Counters.sol\";\r\nimport \"@openzeppelin/contracts/access/Ownable.sol\";\r\n\r\ncontract NftMarket is ERC721URIStorage, Ownable {\r\n    using Counters for Counters.Counter;\r\n\r\n    Counters.Counter private _listedItems;\r\n    Counters.Counter private _tokenIds;\r\n\r\n    uint256[] private _allNfts;\r\n\r\n    \r\n    uint public listingPrice = 0.025 ether;\r\n\r\n    mapping(address => mapping(uint => uint)) private _ownerTokens;\r\n    mapping(uint => uint) private _idToOwnedIndex;\r\n    mapping(string => bool) private _usedTokenURIs;\r\n    mapping(uint => NftItem) private _idToNft;\r\n    mapping(uint => uint) private _idToNftIndex;\r\n\r\n    struct NftItem {\r\n        uint tokenId;\r\n        uint price;\r\n        address creator;\r\n        bool isListed;\r\n    }\r\n\r\n    event NftItemCreated(\r\n        uint tokenId,\r\n        uint price,\r\n        address creator,\r\n        bool isListed\r\n    );\r\n\r\n    constructor() ERC721(\"CreaturesNFT\", \"CNFT\") {}\r\n\r\n\r\n    function setListingPrice(uint newPrice) external onlyOwner {\r\n        require(newPrice > 0, \"Price should be greater then 0\");\r\n        listingPrice = newPrice;\r\n    }\r\n\r\n\r\n    function mintToken(string memory tokenURI, uint price) public payable returns(uint) {\r\n        require(!tokenURIExists(tokenURI), \"Token URI already exists\");\r\n        require(msg.value >= listingPrice, \"Paid not enough\");\r\n\r\n        _tokenIds.increment();\r\n        _listedItems.increment();\r\n\r\n        uint newTokenId = _tokenIds.current();\r\n\r\n        _safeMint(msg.sender, newTokenId);\r\n        _setTokenURI(newTokenId, tokenURI);\r\n        _usedTokenURIs[tokenURI]  = true;\r\n        createNftItem(newTokenId, price);\r\n    \r\n        return newTokenId;\r\n    }\r\n\r\n\r\n    function getOwnerNfts() public view returns(NftItem[] memory) {\r\n        uint ownedItemsCount = ERC721.balanceOf(msg.sender);\r\n        NftItem[] memory items = new NftItem[](ownedItemsCount);\r\n\r\n        for (uint i = 0; i < ownedItemsCount; ++i) {\r\n            uint tokenId = tokenOfOwnerByIndex(i, msg.sender);\r\n            NftItem storage item = _idToNft[tokenId];\r\n            items[i] = item; \r\n        }\r\n\r\n        return items;\r\n    }\r\n\r\n\r\n    function buyNft(uint tokenId) public payable {\r\n        uint price = _idToNft[tokenId].price;\r\n        address owner = ERC721.ownerOf(tokenId);\r\n\r\n\r\n        require(msg.value == price, \"Please submit the asking price\");\r\n        require(msg.sender != owner, \"You can not buy your own nft\");\r\n\r\n        _idToNft[tokenId].isListed = false;\r\n        _listedItems.decrement();\r\n\r\n        _transfer(owner, msg.sender, tokenId);\r\n        payable(owner).transfer(msg.value);\r\n    }\r\n\r\n\r\n    function tokenOfOwnerByIndex(uint index, address owner) public view returns (uint) {\r\n        require(index < ERC721.balanceOf(owner), \"Out of bounds\");\r\n        return _ownerTokens[owner][index];\r\n    }\r\n\r\n\r\n    function createNftItem(uint tokenId, uint price) private {\r\n        require(price > 0, \"Price must be greater then 0\");\r\n        \r\n        _idToNft[tokenId] = NftItem({\r\n            tokenId: tokenId,\r\n            price: price,\r\n            creator: msg.sender,\r\n            isListed: true\r\n        });\r\n\r\n        emit NftItemCreated(tokenId, price, msg.sender, true);\r\n    }\r\n\r\n\r\n    function getNftItem(uint tokenId) public view returns(NftItem memory) {\r\n        return _idToNft[tokenId];\r\n    }\r\n\r\n\r\n    function getAllNftOnSale() public view returns(NftItem[] memory) {\r\n        uint total = totalSupply();\r\n        uint currentIndex = 0;\r\n        NftItem[] memory items = new NftItem[](_listedItems.current());\r\n    \r\n        for (uint i = 0; i < total; i++) {\r\n            uint tokenId = tokenByIndex(i);\r\n            NftItem storage item = _idToNft[tokenId];\r\n\r\n            if (item.isListed == true) {\r\n                items[currentIndex] = item;\r\n                currentIndex++;\r\n            }\r\n        \r\n        }\r\n    \r\n    }\r\n\r\n\r\n    function listedItemsCount() public view returns(uint) {\r\n        return _listedItems.current();\r\n    }\r\n\r\n\r\n    function tokenURIExists(string memory tokenURI) public view returns(bool) {\r\n        return _usedTokenURIs[tokenURI] == true;\r\n    }    \r\n\r\n\r\n    function _removeTokenFromOwnerEnumeration(address from, uint tokenId) private {\r\n        uint lastTokenIndex = ERC721.balanceOf(from) - 1;\r\n        uint tokenIndex = _idToOwnedIndex[tokenId];\r\n\r\n        if (tokenIndex != lastTokenIndex) {\r\n            uint lastTokenId = _ownerTokens[from][lastTokenIndex];\r\n\r\n            _ownerTokens[from][tokenIndex] = lastTokenId;\r\n            _idToOwnedIndex[lastTokenId] = tokenIndex;\r\n        }\r\n\r\n        delete _idToOwnedIndex[tokenId];\r\n        delete _ownerTokens[from][lastTokenIndex];\r\n    }\r\n\r\n\r\n    function _removeTokenFromAllTokensEnumeration(uint tokenId) private {\r\n            uint lastTokenIndex = _allNfts.length - 1;\r\n            uint tokenIndex = _idToNftIndex[tokenId];\r\n            uint lastTokenId = _allNfts[lastTokenIndex];\r\n\r\n\r\n            _allNfts[tokenIndex] = lastTokenId;\r\n            _idToNftIndex[lastTokenId] = tokenIndex;\r\n\r\n            delete _idToNftIndex[tokenId];\r\n            _allNfts.pop();\r\n    }\r\n\r\n\r\n    function _beforeTokenTransfer(address from, address to, uint tokenId) internal virtual override {\r\n        super._beforeTokenTransfer(from, to, tokenId);\r\n\r\n\r\n        if (from == address(0)) {\r\n            _addTokenToAllTokensEnumeration(tokenId);\r\n        } else if (from != to) {\r\n            _removeTokenFromOwnerEnumeration(from, tokenId);\r\n        } \r\n\r\n        if (to == address(0)) {\r\n            _removeTokenFromAllTokensEnumeration(tokenId);\r\n        } else if (to != from) {\r\n            _addTokenToOwnerEnumeration(tokenId, to);\r\n        }\r\n\r\n        if (to != from) {\r\n            _addTokenToOwnerEnumeration(tokenId, to);\r\n        }\r\n    }\r\n\r\n\r\n    function placeNftOnSale(uint tokenId, uint newPrice) public payable {\r\n        NftItem memory item = _idToNft[tokenId];\r\n        require(msg.sender == item.creator, \"You are not owner of this NFT\");\r\n        require(!item.isListed, \"Item is already listed\");\r\n        require(msg.value == listingPrice, \"You should pay 0.025 ether to list item\");\r\n\r\n        item.isListed = true;\r\n        item.price = newPrice;\r\n        _listedItems.increment();        \r\n    }\r\n\r\n\r\n    function _addTokenToAllTokensEnumeration(uint tokenId) private {\r\n        _idToNftIndex[tokenId] = _allNfts.length;\r\n        _allNfts.push(tokenId);\r\n    }\r\n\r\n\r\n    function totalSupply() public view returns(uint) {\r\n        return _allNfts.length;\r\n    }\r\n\r\n\r\n    function tokenByIndex(uint index) public view returns(uint) {\r\n        require(index < totalSupply(), \"Index out of the bounds\");\r\n        return _allNfts[index];\r\n    }\r\n\r\n\r\n    function _addTokenToOwnerEnumeration(uint tokenId, address to) private {\r\n        uint length = ERC721.balanceOf(to);\r\n\r\n        _ownerTokens[to][length] = tokenId;\r\n        _idToOwnedIndex[tokenId] = length;\r\n    }\r\n}",
  "sourcePath": "C:\\Users\\\\nft-mark\\contracts\\NftMarket.sol",
  "compiler": {
    "name": "solc",
    "version": "0.8.17+commit.8df45f5f.Emscripten.clang"
  },
  "schemaVersion": "3.4.10",
  "updatedAt": "2022-11-01T09:25:44.739Z",
  "networkType": "ethereum",
  "devdoc": {
    "kind": "dev",
    "methods": {
      "approve(address,uint256)": {
        "details": "See {IERC721-approve}."
      },
      "balanceOf(address)": {
        "details": "See {IERC721-balanceOf}."
      },
      "getApproved(uint256)": {
        "details": "See {IERC721-getApproved}."
      },
      "isApprovedForAll(address,address)": {
        "details": "See {IERC721-isApprovedForAll}."
      },
      "name()": {
        "details": "See {IERC721Metadata-name}."
      },
      "owner()": {
        "details": "Returns the address of the current owner."
      },
      "ownerOf(uint256)": {
        "details": "See {IERC721-ownerOf}."
      },
      "renounceOwnership()": {
        "details": "Leaves the contract without owner. It will not be possible to call `onlyOwner` functions anymore. Can only be called by the current owner. NOTE: Renouncing ownership will leave the contract without an owner, thereby removing any functionality that is only available to the owner."
      },
      "safeTransferFrom(address,address,uint256)": {
        "details": "See {IERC721-safeTransferFrom}."
      },
      "safeTransferFrom(address,address,uint256,bytes)": {
        "details": "See {IERC721-safeTransferFrom}."
      },
      "setApprovalForAll(address,bool)": {
        "details": "See {IERC721-setApprovalForAll}."
      },
      "supportsInterface(bytes4)": {
        "details": "See {IERC165-supportsInterface}."
      },
      "symbol()": {
        "details": "See {IERC721Metadata-symbol}."
      },
      "tokenURI(uint256)": {
        "details": "See {IERC721Metadata-tokenURI}."
      },
      "transferFrom(address,address,uint256)": {
        "details": "See {IERC721-transferFrom}."
      },
      "transferOwnership(address)": {
        "details": "Transfers ownership of the contract to a new account (`newOwner`). Can only be called by the current owner."
      }
    },
    "version": 1
  },
  "userdoc": {
    "kind": "user",
    "methods": {},
    "version": 1
  }
}